S011000054524F4E5F565F30312E737265635B
S31502000000C0570022999A0102A1960102A99A0102F9
S31502000010A99A0102A99A0102A99A0102A99A0102C0
S31502000020000000000000000000000000A99A010282
S31502000030A99A010200000000A99A0102A99A0102E6
S3150200004099530102E9540102F955010201570102CD
S31502000050F9670102F139010231380102A93A0102B6
S31502000060F13A0102A978010271790102C17901020C
S3150200007059820102712E0102412F010281470102BA
S31502000080C148010279490102594A0102B14A0102F3
S31502000090F1260102F139010231380102A93A0102BF
S309020000A0F13A010226
S315020000A40100000057616974696E6720666F7220E9
S315020000B445535033322E2E2E00000000000000005D
S315020000C40000000000000000000000000000000024
S315020000D40000000000000000000000000000000014
S315020000E40000000000000000000000000000000004
S315020000F400000000000000000000000000000000F4
S3150200010400000000000000000000000000000000E3
S3150200011400000000000000000000000000000000D3
S3150200012400000000000000000000000000000000C3
S3150200013400000000000000000000000000000000B3
S3150200014400000000000000000000000000000000A3
S315020001540000000000000000000000000000000093
S315020001645354414E4442590000000000000000006E
S315020001740000000000000000000000000000000073
S31502000184010000009E4202029049020282500202CB
S3150200019474570202665E0202586502024A6C020241
S315020001A43C7302022E7A02022081020212880202A1
S315020001B4048F0202F6950202E89C0202DAA3020204
S315020001C4CCAA0202BEB10202B0B80202A2BF020265
S315020001D494C6020286CD020278D402026ADB0202C5
S315020001E45CE202024EE9020240F0020232F7020225
S315020001F424FE020216050302080C0302FA12030283
S31502000204EC190302DE200302D0270302C22E0302E4
S31502000214B4350302A63C0302984303028A4A030244
S315020002247C5103026E580302605F030252660302A4
S31502000234446D030236740302287B03021A82030204
S315020002440C890302FE8F0302F0960302E29D030267
S31502000254D4A40302C6AB0302B8B20302AAB90302C8
S315020002649CC003028EC7030280CE030272D5030228
S3150200027464DC030256E3030248EA03021734020269
S315020002840B3F0202C8400202814102022E3E0202D2
S31502000294BF3F0202CC4002028C41020265420202C4
S315020002A4B33D0202053B0202C33F020204320202CA
S315020002B4ED2E0202D2400202D62D0202433A020275
S315020002C4D93C0202123B0202183B02022E310202FE
S315020002D412320202D7400202133F02020E30020217
S315020002E410330202C23502021B3F02027D340202AD
S315020002F4CD3F020292410202373102024C2D020222
S31502000304DD400202AA3A020217320202FD36020254
S31502000314373E02021F3F020208370202F32E02028E
S315020003241730020297410202093E0202C238020251
S31502000334582D02021E340202413E02026A4202029F
S315020003440F3702020F3E0202FE2E0202C13D0202D4
S3150200035416370202E24002021C3B02029D300202EE
S31502000364473A0202B73A0202213B0202C93D02029D
S315020003744D3A0202193C0202732E02024131020272
S31502000384473102021C3C0202812D0202394002025A
S31502000394A3300202CA35020219330202C43A020225
S315020003A42D3F0202183E02021C370202323F0202AB
S315020003B4253C0202303C0202473E020228000000AB
S315020003C4C83F0922000000000000000020030022AA
S315020003D4000000000000000000000000101F0000E2
S315020003E40000188800000000000000000100400020
S315020003F401000000000000000020344000283440C0
S31502000404010100000C343440143434401C343440AA
S3150200041424343440040100020305060720002000A8
S31502000424100010001000080004000100000102037D
S3150200043400010200000000000000000094030022F4
S31502000444940300229C0300229C030022A40300229C
S31502000454A4030022AC030022AC030022B40300224C
S31502000464B4030022BC030022BC030022C4030022FC
S31502000474C4030022CC030022CC030022D4030022AC
S31502000484D4030022DC030022DC030022E40300225C
S31502000494E4030022EC030022EC030022F40300220C
S315020004A4F4030022FC030022FC03002204040022BB
S315020004B4040400220C0400220C0400221404002268
S315020004C4140400221C0400221C0400222404002218
S315020004D4240400222C0400222C04002234040022C8
S315020004E4340400223C0400223C0400224404002278
S315020004F4440400224C0400224C0400225404002228
S31502000504540400225C0400225C04002264040022D7
S31502000514640400226C0400226C0400227404002287
S31502000524740400227C0400227C0400228404002237
S31502000534840400228C0400228C04002294040022E7
S31502000544940400229C0400229C040022A404002297
S31502000554A4040022AC040022AC040022B404002247
S31502000564B4040022BC040022BC040022C4040022F7
S31502000574C4040022CC040022CC040022D4040022A7
S31502000584D4040022DC040022DC040022E404002257
S31502000594E4040022EC040022EC040022F404002207
S315020005A4F4040022FC040022FC04002204050022B6
S315020005B4040500220C0500220C0500221405002263
S315020005C4140500221C0500221C0500222405002213
S315020005D4240500222C0500222C05002234050022C3
S315020005E4340500223C0500223C0500224405002273
S315020005F4440500224C0500224C0500225405002223
S31502000604540500225C0500225C05002264050022D2
S31502000614640500226C0500226C0500227405002282
S31502000624740500227C0500227C0500228405002232
S31502000634840500228C0500228C05002294050022E2
S31502000644940500229C0500229C050022A405002292
S31502000654A4050022AC050022AC050022B405002242
S31502000664B4050022BC050022BC050022C4050022F2
S31502000674C4050022CC050022CC050022D4050022A2
S31502000684D4050022DC050022DC050022E405002252
S31502000694E4050022EC050022EC050022F405002202
S315020006A4F4050022FC050022FC05002204060022B1
S315020006B4040600220C0600220C060022140600225E
S315020006C4140600221C0600221C060022240600220E
S315020006D4240600222C0600222C06002234060022BE
S315020006E4340600223C0600223C060022440600226E
S315020006F4440600224C0600224C060022540600221E
S31502000704540600225C0600225C06002264060022CD
S31502000714640600226C0600226C060022740600227D
S31502000724740600227C0600227C060022840600222D
S31502000734840600228C0600228C06002294060022DD
S31502000744940600229C0600229C060022A40600228D
S31502000754A4060022AC060022AC060022B40600223D
S31502000764B4060022BC060022BC060022C4060022ED
S31502000774C4060022CC060022CC060022D40600229D
S31502000784D4060022DC060022DC060022E40600224D
S31502000794E4060022EC060022EC060022F4060022FD
S315020007A4F4060022FC060022FC06002204070022AC
S315020007B4040700220C0700220C0700221407002259
S315020007C4140700221C0700221C0700222407002209
S315020007D4240700222C0700222C07002234070022B9
S315020007E4340700223C0700223C0700224407002269
S315020007F4440700224C0700224C0700225407002219
S31502000804540700225C0700225C07002264070022C8
S31502000814640700226C0700226C0700227407002278
S31502000824740700227C0700227C0700228407002228
S31502000834840700228C0700228C0700220000020093
S30902000844FFFFFFFFAC
S3150200085080B588B000F068F844F25000C2F2092070
S31502000860029040F2066103910122059214F01CFAED
S315020008700A2001904FF47A71049118F099FE0298B9
S315020008800399002214F010FA0499019818F090FEC8
S3150200089002980399059A14F007FA0499642018F04D
S315020008A087FE00F06DF8059BFF208DF81F003820AB
S315020008B002210DF11F0200F03BFA0146059806914E
S315020008C047F6C831C2F2002108700698B0B9FFE7B0
S315020008D09DF81F00052811DCFFE747F6C931C2F271
S315020008E00021012008709DF81F3043F6FA11C0F26C
S315020008F002210020382206F0FFF80FE047F6C93140
S31502000900C2F2002100200870069A9DF81F3043F6B5
S31502000910CA31C0F2022106F0EFF8FFE7069808B0E6
S3150200092080BDD4D4D4D4D4D484B000200090EFF3C4
S31502000930108001900198009001200390039880F3A3
S31502000940108844F2C810C2F20920006848B9FFE7CD
S3150200095040F61451C4F2400100200870402008708D
S31502000960FFE744F2C811C2F20921086801300860A3
S3150200097000980290029880F3108804B07047D4D48D
S3150200098084B000200090EFF310800190019800904F
S3150200099001200390039880F3108844F2C810C2F233
S315020009A00920006840B1FFE744F2C811C2F20921EA
S315020009B0086801380860FFE744F2C810C2F209204D
S315020009C0006848B9FFE740F61451C4F2400100201E
S315020009D0087080200870FFE700980290029880F362
S315020009E0108804B07047D4D480B588B006900698B3
S315020009F018B9FFE70220079083E0069900200871E4
S31502000A00069908800699488047F6C830C2F2002047
S31502000A100078C00740B1FFE747F6C930C2F20020AE
S31502000A200078C00718B9FFE70720079069E00020A1
S31502000A308DF8140004903820022104AA052300F040
S31502000A4077F90390039818B1FFE70398079058E0E7
S31502000A509DF8100000F00F008DF80B009DF80B00BA
S31502000A6028B1FFE79DF80B00062803DBFFE700200D
S31502000A70079046E09DF8110080098DF80A009DF85E
S31502000A800A00032803D1FFE70020079039E09DF80A
S31502000A9011109DF8120001F00F0140EA0120ADF895
S31502000AA008009DF813109DF8140001F00F0140EAAA
S31502000AB00120ADF80600BDF8080020B9FFE7BDF831
S31502000AC0060060B1FFE7BDF80800B0F5806F06DAF0
S31502000AD0FFE7BDF80600B0F5167F03DBFFE700204F
S31502000AE007900EE09DF80B0006990871BDF8080004
S31502000AF006990880BDF806000699488000200790EE
S31502000B00FFE7079808B080BD80B582B045F6780247
S31502000B10C0F20422019210685168926812689047E6
S31502000B200199086889684968884747F6CC31C2F254
S31502000B3000210020086002B080BDD4D4D4D4D4D41D
S31502000B4080B582B045F67801C0F2042101910868A9
S31502000B50896889688847019947F6CC32C2F2002231
S31502000B600020106008688968C96888470199086882
S31502000B7089684968884702B080BDD4D4D4D4D4D415
S31502000B8047F6CC30C2F2002000687047D4D4D4D4E1
S31502000B9082B00190009100980199401A4CF6CD411D
S31502000BA0CCF6CC41A0FB0110C00802B07047D4D4E9
S31502000BB081B000900098007940B9FFE747F6CC3142
S31502000BC0C2F20021086801300860FFE701B07047F1
S31502000BD080B582B00190019840B1FFE70198007993
S31502000BE040F20001C2F200210870FFE700F01CF893
S31502000BF000F002F802B080BD81B08DF803009DF9C5
S31502000C0003204CF20030C4F2000050F8221021F406
S31502000C10803140F822109DF9031050F8210001B0EE
S31502000C207047D4D4D4D4D4D482B0EFF303800190E5
S31502000C30019800900098103840B202B07047D4D4A0
S31502000C4080B584B0039002910398000A8DF80100E2
S31502000C5003988DF80200029800788DF8030044F29A
S31502000C60FC00C2F209200DF101010322002314F057
S31502000C7063FA0190019820B9FFE700F009F80190A4
S31502000C80FFE7019800285FEA0F9004B080BDD4D434
S31502000C9080B582B00020019000F0A2F80090009882
S31502000CA0B0F5967F04D1FFE74FF496700190FFE707
S31502000CB0019802B080BDD4D480B584B0ADF80E00E0
S31502000CC002919DF80F008DF80200BDF80E008DF816
S31502000CD0030044F2FC00C2F209200DF102010222D5
S31502000CE0012314F029FA0190019820B9FFE7FFF7D2
S31502000CF0CFFF0190FFE7019858B9FFE7029944F246
S31502000D00FC00C2F209200122002314F0F9F9019035
S31502000D10FFE7019820B9FFE7FFF7BAFF0190FFE767
S31502000D20019800285FEA0F9004B080BDD4D4D4D4D1
S31502000D3080B586B08DF813008DF8121003920293D7
S31502000D409DF8131044F2FC00C2F20920012214F0AD
S31502000D5017FA0190019818B1FFE7019805903BE058
S31502000D6044F2FC00C2F209200DF1120101231A46D7
S31502000D7014F0E2F90190019820B9FFE7FFF788FF26
S31502000D800190FFE7019890B9FFE70399029A44F2AE
S31502000D90FC00C2F20920002314F0B2F90190019876
S31502000DA020B9FFE7FFF774FF0190FFE7FFE701981D
S31502000DB038B1FFE744F2FC00C2F2092014F0D4F97C
S31502000DC0FFE744F2FC00C2F209203C21012214F0A2
S31502000DD0D7F901980590FFE7059806B080BDD4D4EF
S31502000DE082B04FF6FF70ADF8020040F20001C2F287
S31502000DF0002100200870FFE7BDF802000138ADF8B7
S31502000E000200BDF8020020B9FFE74FF49670019088
S31502000E1022E0FFE740F20000C2F20020007808B9A3
S31502000E202FF017C040F20000C2F20020007801281D
S31502000E3008D0FFE740F20001C2F20021002008704C
S31502000E40019009E040F20001C2F200210020087080
S31502000E504FF496700190FFE7019802B07047D4D420
S31502000E6080B586B000200490059044F2C800C2F214
S31502000E700920039045F2E471C0F2042112F060FFEA
S31502000E80059048F20811C4F226010091086820F480
S31502000E90803008604FF47A7001900121029118F0B7
S31502000EA087FB009B019802991A6842F480321A6005
S31502000EB018F07EFB0398049913F06EF805900598D6
S31502000EC006B080BDD4D4D4D480B588B00790079834
S31502000ED00079022805D0FFE707980079802807D114
S31502000EE0FFE740F2E001C2F200210120087095E01E
S31502000EF007980079042840F08680FFE740F2040153
S31502000F00C2F20021D1F880000130C1F880000798B2
S31502000F1080688DF81B009DF81B000D2805D0FFE7A1
S31502000F209DF81B000A282FD1FFE747F6D030C2F200
S31502000F3000200088012826DBFFE747F6D030C2F200
S31502000F4000200490028847F6D231C2F20021002026
S31502000F500590885440F20400C2F2002003907F22DA
S31502000F601EF0BEF8039B0499059883F87F00D3F818
S31502000F7084200132C3F88420012283F88C2083F86E
S31502000F808D200880FFE73DE047F6D030C2F2002010
S31502000F9000887E280FD8FFE79DF81B0047F6D0335E
S31502000FA0C2F200231A88511C198047F6D231C2F2C6
S31502000FB00021885425E047F6D030C2F20020019085
S31502000FC0028847F6D231C2F20021002002908854EC
S31502000FD040F20400C2F2002000907F221EF080F848
S31502000FE0009B0199029883F87F00D3F8842001328E
S31502000FF0C3F88420012283F88C2083F88D20088090
S31502001000FFE7FFE709E040F20401C2F20021D1F84E
S3150200101088000130C1F88800FFE7FFE708B080BD0D
S3150200102080B584B0029045F23472C0F20422106890
S3150200103051689268126890470190019878B1FFE76B
S3150200104001980E280BD0FFE7019A43F27701C0F20E
S315020010500221002005F050FD019803900AE042F6B5
S315020010608C51C0F202210020009005F045FD009847
S315020010700390FFE7039804B080BDD4D4D4D4D4D46B
S3150200108080B588B00690069818B9FFE70220079047
S315020010907DE006981DF095FB0590059818B9FFE7C7
S315020010A00020079073E040F64050C0F2030004901F
S315020010B0FFE740F2E000C2F2002001780020C907F3
S315020010C0029041B9FFE704980138049000285FEACC
S315020010D00F900290FFE70298C00728B1FFE70520AC
S315020010E0012118F065FAE4E70598A02803D3FFE783
S315020010F09F200590FFE70699059A47F65240C2F2ED
S31502001100002001901DF09AFA0199059A0020885450
S3150200111040F2E002C2F20022107045F23472C0F2CE
S315020011200422106892689368059A98470390039878
S3150200113048B1FFE740F2E001C2F200210120087047
S315020011400398079023E040F64050C0F20300049053
S31502001150FFE740F2E000C2F2002001780020C90752
S31502001160009041B9FFE704980138049000285FEA2D
S315020011700F900090FFE70098C00728B1FFE705200F
S31502001180012118F015FAE4E700200790FFE7079817
S3150200119008B080BDD4D4D4D480B586B045F23470BC
S315020011A0C0F20420006804900498F8B1FFE704989E
S315020011B0406AD8B1FFE74FF0C85003900498406ADE
S315020011C0806C0399084210D0FFE740F20401C2F294
S315020011D00021D1F888000130C1F88800039A0498EA
S315020011E0416A886E10438866FFE7FFE740F2040013
S315020011F0C2F2002090F88D00C00710B3FFE740F25C
S315020012000400C2F20020029000F022F8029B47F688
S31502001210F240C2F20020019044F27212C0F202229F
S31502001220A0211EF093FD0198FFF72AFF029A43F2CE
S31502001230EB11C0F20221002005F05EFC01200590B0
S3150200124002E000200590FFE7059806B080BDD4D4E1
S3150200125080B59AB01990199842F6E961C0F2022156
S315020012601EF066FA1890189878B3FFE7FFE7189809
S31502001270017800200C9071B1FFE7189801780020E0
S315020012803A290C9007D0FFE7189800783D285FEAC4
S315020012900F900C90FFE70C98C00720B1FFE7189853
S315020012A001301890E3E71898007868B1FFE71898BC
S315020012B0013000210A221FF0B9F940F20401C2F2FC
S315020012C00021A1F89400FFE7FFE7199843F602719F
S315020012D0C0F202211EF02CFA1790179880B3FFE78E
S315020012E0FFE71798017800200B9071B1FFE7179876
S315020012F0017800203A290B9007D0FFE7179800786B
S315020013003D285FEA0F900B90FFE70B98C00720B1CC
S31502001310FFE7179801301790E3E71798007870B146
S31502001320FFE71798013000211EF066FDB7EEC00BED
S3150200133040F20400C2F2002080ED260AFFE7FFE732
S31502001340199843F21341C0F202211EF0F1F91690E8
S31502001350169880B3FFE7FFE71698017800200A90F7
S3150200136071B1FFE71698017800203A290A9007D052
S31502001370FFE7169800783D285FEA0F900A90FFE78C
S315020013800A98C00720B1FFE7169801301690E3E7E6
S315020013901698007870B1FFE71698013000211EF00A
S315020013A02BFDB7EEC00B40F20400C2F2002080ED26
S315020013B0270AFFE7FFE7199842F6D351C0F2022146
S315020013C01EF0B6F91590159880B3FFE7FFE715985A
S315020013D001780020099071B1FFE715980178002085
S315020013E03A29099007D0FFE7159800783D285FEA69
S315020013F00F900990FFE70998C00720B1FFE71598FB
S3150200140001301590E3E71598007870B1FFE715985B
S31502001410013000211EF0F0FCB7EEC00B40F20400D2
S31502001420C2F2002080ED280AFFE7FFE7199843F28F
S315020014302B11C0F202211EF07BF91490149880B38E
S31502001440FFE7FFE7149801780020089071B1FFE7E3
S315020014501498017800203A29089007D0FFE71498DB
S3150200146000783D285FEA0F900890FFE70898C007CA
S3150200147020B1FFE7149801301490E3E7149800783E
S3150200148070B1FFE71498013000211EF0B5FCB7EEEB
S31502001490C00B40F20400C2F2002080ED290AFFE7E9
S315020014A0FFE7199843F29701C0F202211EF040F9B4
S315020014B01390139880B3FFE7FFE713980178002093
S315020014C0079071B1FFE71398017800203A29079037
S315020014D007D0FFE7139800783D285FEA0F90079040
S315020014E0FFE70798C00720B1FFE713980130139072
S315020014F0E3E71398007870B1FFE7139801300021F3
S315020015001EF07AFCB7EEC00B40F20400C2F20020D5
S3150200151080ED2A0AFFE7FFE7199844F2BE01C0F2FE
S3150200152002211EF005F91290129880B3FFE7FFE739
S31502001530129801780020069071B1FFE7129801789F
S3150200154000203A29069007D0FFE7129800783D2836
S315020015505FEA0F900690FFE70698C00720B1FFE703
S31502001560129801301290E3E71298007870B1FFE703
S315020015701298013000211EF03FFCB7EEC00B40F27C
S315020015800400C2F2002080ED2B0AFFE7FFE719985C
S3150200159043F60231C0F202211EF0CAF811901198E8
S315020015A080B3FFE7FFE7119801780020059071B13B
S315020015B0FFE71198017800203A29059007D0FFE746
S315020015C0119800783D285FEA0F900590FFE705988D
S315020015D0C00720B1FFE7119801301190E3E7119897
S315020015E0007870B1FFE71198013000211EF004FC6B
S315020015F0B7EEC00B40F20400C2F2002080ED2C0AC6
S31502001600FFE7FFE7199843F29A01C0F202211EF0A2
S315020016108FF81090109880B3FFE7FFE710980178D3
S315020016200020049071B1FFE71098017800203A2952
S31502001630049007D0FFE7109800783D285FEA0F90E4
S315020016400490FFE70498C00720B1FFE71098013025
S315020016501090E3E71098007870B1FFE71098013018
S3150200166000211EF0C9FBB7EEC00B40F20400C2F225
S31502001670002080ED2D0AFFE7FFE7199843F6077170
S31502001680C0F202211EF054F80F900F9878B3FFE7CC
S31502001690FFE70F9801780020039071B1FFE70F98DA
S315020016A0017800203A29039007D0FFE70F980078C7
S315020016B03D285FEA0F900390FFE70398C00720B129
S315020016C0FFE70F9801300F90E3E70F98007868B1B3
S315020016D0FFE70F98013000210A221EF0F3FE40F2C6
S315020016E00401C2F20021C1F8B800FFE7FFE719982A
S315020016F044F2C101C0F202211EF01AF80E900E98B1
S31502001700002872D0FFE7FFE70E98017800200290CA
S3150200171071B1FFE70E98017800203A29029007D0AE
S31502001720FFE70E9800783D285FEA0F900290FFE7E8
S315020017300298C00720B1FFE70E9801300E90E3E74A
S315020017400E98007800284FD0FFE70E9801300E90D1
S3150200175000200D90FFE70E980D99415C0020019044
S3150200176031B3FFE70E980D99415C00202C290190B8
S315020017701ED0FFE70E980D99415C002020290190AA
S3150200178016D0FFE70E980D99415C00200D290190B5
S315020017900ED0FFE70E980D99415C00200A290190B0
S315020017A006D0FFE70D981F285FEA2F900190FFE70A
S315020017B00198C00770B1FFE70E980D9A805C40F25F
S315020017C00401C2F20021114481F8BC000D980130D7
S315020017D00D90C0E70D9940F20400C2F200200144C8
S315020017E0002081F8BC00FFE7FFE71AB080BDD4D421
S315020017F080B543F61340C0F20220FFF741FC80BDDC
S31502001800F0B599B0DDF878C01890179116928DED63
S31502001810150ACDED140A13931E9818B1FFE718980E
S3150200182008B9FFE7FAE09DED150A9FED7D1AB4EEC1
S31502001830410AF1EE10FA04D8FFE74FF07E501590F8
S31502001840FFE79DED140A9FED761AB4EE410AF1EE1A
S3150200185010FA04D8FFE74FF07E501490FFE71E9867
S315020018601CF0AFFF129017981190169810901898C6
S315020018700221032208F004FD1898012108F0C8FC91
S315020018801898FF2108F090FC1898139A00210891E5
S3150200189008F06EFC08980F90FFE70F98129988429D
S315020018A080F0BC80FFE71E980F99405C8DF83B00E4
S315020018B09DF83B000A2810D1FFE7179811909DED7D
S315020018C0140A9FED581A20EE010ABDEEC00A10EE68
S315020018D0101A1098084410909CE000200D909DF874
S315020018E03B000DA900F0A0F80C900D98002800F01E
S315020018F09080FFE79DF83B0020285ED0FFE70C981A
S3150200190000285AD0FFE718980C990D9A1388528826
S31502001910EC464FF0000ECDF81CE0CCF804E0CCF813
S3150200192000201A4606F00CFD079B0D98008800EE73
S31502001930100AB8EE400A9DED151A20EE010ABCEE19
S31502001940C00A8DED0B0A0D98408800EE100AB8EE1B
S31502001950400A9DED141A20EE010ABCEEC00A8DED76
S315020019600A0A18980D9AB2F90010B2F90220DDF8A7
S315020019702CC04FEA0C1EDDF828C04FEA0C14DDF825
S3150200198044C04FEA0C15DDF840C04FEA0C16EC468F
S315020019903C27CCF8147036B2CCF810602DB2CCF8D5
S315020019A00C5024B2CCF808400FFA8EFECCF804E0B4
S315020019B0CCF8003006F040FDFFE70D98808801283C
S315020019C010DBFFE70D98808800EE100AB8EE400A99
S315020019D09DED151A20EE010ABDEEC00A10EE100AA0
S315020019E006900FE00D98008800EE100AB8EE400A45
S315020019F09DED151A20EE010ABDEEC00A10EE100A80
S31502001A000690FFE7069809900999119808441190E3
S31502001A10FFE7FFE70F9801300F903EE719B0F0BDE0
S31502001A206F12833A0000084280B58EB08DF823000B
S31502001A3007919DF8230000F0AFF906909DF8230068
S31502001A4000F0D6F80590079820B1FFE705980799A8
S31502001A500860FFE7059840B1FFE70698002804D41E
S31502001A60FFE706984C2803DBFFE70020099081E098
S31502001A70069947F69250C2F20020405CC007002841
S31502001A806DD1FFE7059808300490069847F6E052B4
S31502001A90C2F200224FF45D7100FB0120039005990A
S31502001AA0088849884843029000200190FFE7019880
S31502001AB00299884223DAFFE70498019930F8110067
S31502001AC0ADF80200BDF8020028B9FFE70399019AB2
S31502001AD0002088540EE0BDF80200C0F345108DF8D0
S31502001AE001009DF80110880040EA11100399019A3D
S31502001AF08854FFE7FFE7019801300190D7E7039981
S31502001B0002980D910C900C98012820DBFFE70C98A7
S31502001B100D9901F01F0108440B900D980A90BFF32E
S31502001B204F8FFFE70A984EF66871CEF20001086001
S31502001B300A9820300A900B9820380B900B980028B0
S31502001B40F0DCFFE7BFF34F8FBFF36F8FFFE7069A15
S31502001B5047F69251C2F2002101208854FFE7069807
S31502001B6047F6E052C2F200224FF45D7100FB0120FB
S31502001B700990FFE709980EB080BDD4D4D4D4D4D44A
S31502001B8080B586B0DDF820C00590049103928DEDF4
S31502001B90020A019305980499039ADDED020A019B54
S31502001BA0DDF820C0EE46CEF800C0B0EE600AFFF7C0
S31502001BB027FE06B080BDD4D480B586B005900491C8
S31502001BC003928DED020A019305980499039ADDEDBD
S31502001BD0020A019BEC46CCF800304FF0FF33B0EE20
S31502001BE0600AFFF70DFE06B080BDD4D4D4D4D4D497
S31502001BF083B08DF807009DF80700412814DBFFE744
S31502001C009DF807005A280FDCFFE79DF8071040F2FF
S31502001C10E400C2F2002000EB81004FF6FC61CFF631
S31502001C20FF7140580290B3E09DF80700612814DB6B
S31502001C30FFE79DF807007A280FDCFFE79DF80710FB
S31502001C4040F24C10C2F2002000EB81004FF67C619C
S31502001C50CFF6FF71405802909AE09DF807003028AF
S31502001C6011DBFFE79DF8070039280CDCFFE79DF83A
S31502001C70071040F2B410C2F2002000EB810050F8C7
S31502001C80C00C029084E09DF80700203801460091BE
S31502001C903F2800F277800099DFE801F0207474741F
S31502001CA0745C2C4A3238747456266862747474747E
S31502001CB07474747474745074747474747474747400
S31502001CC074747474747474747474747474747474CC
S31502001CD0747474747474743E7444746E44F29240F0
S31502001CE0C0F20420029053E042F2D810C0F204205F
S31502001CF002904DE04FF23A10C0F20320029047E004
S31502001D0042F6CA00C0F20420029041E04FF62C00CF
S31502001D10C0F2032002903BE042F6BC70C0F20420FF
S31502001D20029035E04FF61E70C0F2032002902FE0BB
S31502001D3041F2F430C0F20420029029E040F2106031
S31502001D40C0F20420029023E040F60250C0F20420C2
S31502001D5002901DE043F2AE60C0F20420029017E04A
S31502001D6043F6A050C0F20420029011E041F6E620AC
S31502001D70C0F2042002900BE044F68430C0F2042044
S31502001D80029005E044F29240C0F204200290FFE77E
S31502001D90029803B07047D4D483B08DF807009DF83B
S31502001DA0070041280ADBFFE79DF807005A2805DCF1
S31502001DB0FFE79DF807004138029075E09DF807009D
S31502001DC061280ADBFFE79DF807007A2805DCFFE7B2
S31502001DD09DF807004738029066E09DF80700302814
S31502001DE00ADBFFE79DF80700392805DCFFE79DF8C7
S31502001DF007000430029057E09DF80700203801469C
S31502001E0000913F2800F24D800099DFE801F0204A58
S31502001E104A4A4A3E2635292C4A4A3B2344414A4AE3
S31502001E204A4A4A4A4A4A4A4A384A4A4A4A4A4A4A1C
S31502001E304A4A4A4A4A4A4A4A4A4A4A4A4A4A4A4AFA
S31502001E404A4A4A4A4A4A4A4A4A2F4A324A473E2056
S31502001E50029029E03F20029026E04020029023E0F3
S31502001E604120029020E0422002901DE04320029091
S31502001E701AE04420029017E04520029014E0462022
S31502001E80029011E0472002900EE0482002900BE0FB
S31502001E904920029008E04A20029005E04B20029079
S31502001EA002E03E200290FFE7029803B07047D4D4C6
S31502001EB080B586B00020059009F01AFE0599024603
S31502001EC044F25800C2F2092004900260006809F048
S31502001ED0EBFE049800686A460121039151604FF4B3
S31502001EE0F071116043F20041C6F626014FF42073E9
S31502001EF01A460FF04DFC0599049800680EF06CFC2A
S31502001F00049800680221032208F0BAF9039904989A
S31502001F10006808F07DF904980068FF2108F044F98A
S31502001F2003990498006808F023FA05990498006852
S31502001F3008F056FA05990498006808F071FA0598AF
S31502001F4006B080BDD4D4D4D480B584B003900398AF
S31502001F5000788007E8B1FFE748F25440C2F2012058
S31502001F60029000680190FEF70BFE01460198FEF70B
S31502001F700FFE48F66411C2F201218860FEF700FEE8
S31502001F800299086048F25041C2F20121012008700C
S31502001F90FFE704B080BDD4D480B586B000F078F8EF
S31502001FA044F25000C2F20920019040F20661029109
S31502001FB0002212F079FE0A200121039117F0F8FAA5
S31502001FC001980299039A12F06FFE78204FF47A7103
S31502001FD017F0EEFA44F24000C2F2092045F26C61B3
S31502001FE0C0F2042114F030FE0490049830B1FFE7E9
S31502001FF0062001F095FB0498059046E044F2400065
S31502002000C2F2092014F070FF0490049830B1FFE781
S31502002010082001F085FB0498059036E028204FF44D
S315020020207A7117F0C5FA00F05FF845F2F460C0F273
S3150200203004204268D16D136ED2F864C048F244524D
S31502002040C2F20122C2F81CC0936151614168886ED6
S31502002050CA6E0B6F48F22451C2F20121CB618A612A
S31502002060486100F015F844F25000C2F2092040F22D
S315020020700E51012212F018FE00F036F800200090F0
S3150200208000F066F800980590FFE7059806B080BD57
S3150200209084B000200090EFF3108001900198009028
S315020020A001200390039880F3108844F2C810C2F20C
S315020020B00920006848B9FFE740F61451C4F240010E
S315020020C00020087040200870FFE744F2C811C2F2EF
S315020020D0092108680130086000980290029880F38E
S315020020E0108804B07047D4D484B000200090EFF377
S315020020F0108001900198009001200390039880F3CC
S31502002100108844F2C810C2F20920006840B1FFE705
S3150200211044F2C811C2F20921086801380860FFE7D3
S3150200212044F2C810C2F20920006848B9FFE740F637
S315020021301451C4F240010020087080200870FFE7A5
S3150200214000980290029880F3108804B07047D4D4A5
S3150200215080B590B08DF82F009DF82F00002863D12E
S31502002160FFE740F20000C9F20000811D40F20000C4
S31502002170C6F6000009904FF496120A921CF05EFA17
S3150200218009990A980F910E900E98012820DBFFE715
S315020021900E980F9901F01F0108440D900F980C90AC
S315020021A0BFF34F8FFFE70C984EF66871CEF200012F
S315020021B008600C9820300C900D9820380D900D98E0
S315020021C00028F0DCFFE7BFF34F8FBFF36F8FFFE707
S315020021D048F24451C2F20121059100228A82CA8242
S315020021E04FF48060069088804FF416730793CB8075
S315020021F088600220087340F20000C6F600000860FC
S3150200220044F24000C2F20920089014F099FE069B9F
S31502002210079A089848F22451C2F201218B82CA8297
S31502002220012214F08DFE3DE048F24451C2F2012132
S315020022300191232088824120C8824FF42070888031
S315020022404FF4F072CA80886002200290087343F24B
S315020022500040C6F62600086044F24000C2F2092099
S315020022600390002214F06CFE029A039848F224515D
S31502002270C2F2012104914FF42F738B822823CB8261
S315020022804FF4A0738B804FF40C7CA1F806C08B60D0
S315020022900A7349F20042C6F62F020A60012214F0BE
S315020022A04FFEFFE710B080BD82B0ADF80400ADF876
S315020022B00210BDF8040040F2262188420FDBFFE738
S315020022C0BDF80200A0280ADBFFE7BDF80200B0F560
S315020022D0A07F04DCFFE701208DF8070003E0002061
S315020022E08DF80700FFE79DF8070002B07047D4D4C7
S315020022F080B5E6B08DF8870148F25840C2F2012057
S31502002300007810B9FFE700F0ADBC4FF48170ADF86C
S3150200231084011920ADF8820144F25800C2F2092064
S315020023202B9000686A4601212A9151604FF40C7184
S31502002330116049F20041C6F62F014FF4A0731A4606
S315020023400FF026FA2B9800680DF02AFE2A992B9890
S31502002350006808F00DF848F25940C2F201200078F0
S31502002360C007002840F04A81FFE744F25800C2F253
S315020023700920299000680021259141F21C42CFF6DE
S31502002380127207F0F5FE259A299800686B464FF4FB
S315020023900C5119604FF4A05311460EF039FA2998E0
S315020023A000686A460C2126915160502111600A226A
S315020023B027924FF496732893114600F065FC269AED
S315020023C02799289B29980068EC46CCF804205A22C3
S315020023D0CCF80020692200F057FC269A2799289B00
S315020023E029980068EC46CCF804204FF4AA72CCF87F
S315020023F00020D22200F048FC2998006843F65423B4
S31502002400C0F2022319229FEDF30A1146FFF7D4FB0D
S3150200241040F20400C2F20020B0F89400012830DB3A
S31502002420FFE740F20400C2F20020B0F8943090EDCB
S31502002430260A90ED271AB7EEC00AB7EEC11A684609
S3150200244080ED021B80ED000B44F27322C0F20222E1
S315020024500DF5A970249030211DF078FC249944F2E0
S315020024605800C2F2092000686A4611601921382212
S315020024709FEDD90A4FF68873CFF60073FFF780FBFC
S3150200248020E043F28642C0F2022240F20403C2F284
S3150200249000230DF5A970239030211DF057FC2399D6
S315020024A044F25800C2F2092000686A4611601921F6
S315020024B038229FEDCA0A4FF68873CFF60073FFF7EC
S315020024C05FFBFFE744F25800C2F209201F90006842
S315020024D042F67A63C0F202231921209178229FEDF7
S315020024E0C00A8DED1C0AFFF767FB9DED1C0A1F98BB
S315020024F02099006842F60573C0F202239B221B92C2
S31502002500FFF75AFB1B9A9DED1C0A1F98006842F6BC
S315020025108F61C0F202216B461960502149F6AA1357
S31502002520CFF688732193FFF72BFB9DED1C0A1F98AC
S315020025302099006843F61E63C0F20223DE22FFF7EB
S315020025403BFB1F9800686A4647F6D401CFF6007136
S31502002550916043F2F721C0F2022151601A21116003
S31502002560AF21DA227D2300F0F3FB1F982099006841
S3150200257043F66122C0F202226B461A60FC221D92C9
S315020025809FED980A8DED1E0A4EF2FF53CFF60073A9
S31502002590FFF7F6FA1D9A9DED1E0A1F98006840F293
S315020025A00401C2F200216B4619606E214FF6887350
S315020025B0CFF60073FFF7E4FA1F982099219B006873
S315020025C043F21E32C0F20222EC46CCF800204FF44F
S315020025D08D72B6EE000AFFF7D3FA44F25000C2F249
S315020025E0092040F20E510122229212F05DFB22983E
S315020025F048F25941C2F201210870F4E29DF88701BE
S31502002600C007002800F0EE82FFE744F25800C2F24B
S3150200261009201A9000680021189142F63E52CFF620
S315020026202A72199207F0A4FD1A9800686A464FF4B6
S31502002630F07111604FF4A0614FF416624FF45263C9
S315020026400EF0E6F800F0D4FB1899199A1A98006869
S3150200265007F08EFD1A9800686A464FF4E071116021
S315020026604FF4A0714FF4507241F230130EF0D0F8CD
S3150200267040F20400C2F20020B0F89400012830DBD8
S31502002680FFE740F20400C2F20020B0F8943090ED69
S31502002690260A90ED271AB7EEC00AB7EEC11A6846A7
S315020026A080ED021B80ED000B44F27322C0F202227F
S315020026B00DF59170179030211DF048FB179944F2E1
S315020026C05800C2F2092000686A46116019213822B0
S315020026D09FED410A4FF68873CFF60073FFF750FA63
S315020026E020E043F28642C0F2022240F20403C2F222
S315020026F000230DF59170169030211DF027FB1699D7
S3150200270044F25800C2F2092000686A461160192193
S3150200271038229FED320A4FF68873CFF60073FFF721
S315020027202FFAFFE744F25800C2F20920159000681A
S31502002730002142F63E52CFF62A7207F019FD15988D
S3150200274000686A464FF4A5511160F0214FF45762B2
S315020027504FF491530EF05CF848F25840C2F2012051
S315020027600078022808D1FFE744F25800C2F2092095
S31502002770006800F0F5FB34E244F25800C2F2092088
S315020027801490006843F61E63C0F202231921DE226A
S315020027909FED130AFFF710FA149800686A4647F687
S315020027A0D401CFF60071916043F2F721C0F2022103
S315020027B051601A211160AF21DA227D2300F0C8FA96
S315020027C040F20400C2F20020B0F894000128C0F2E0
S315020027D0AF8009E03333333FAE47E13E6666E63EFD
S315020027E0CDCC0C3F8FC2F53E40F20400C2F200206F
S315020027F0B0F89400B0F5487F06DAFFE74FF6887026
S31502002800CFF60070139012E040F20400C2F20020EC
S31502002810B0F89400B0F5966F44F24440CFF6FF70DC
S31502002820BCBF4DF20000CFF6FF701390FFE713987E
S315020028303F9040F20400C2F200201290B0F89430A9
S3150200284043F22542C0F202220DF581700D9020213D
S315020028500E911DF07BFA0D9944F25800C2F209203E
S31502002860119000683F9B6A4611601921F822109266
S31502002870B6EE000AFFF784F90E99129890ED260A31
S3150200288090ED271AB7EEC00AB7EEC11A684680ED78
S31502002890021B80ED000B43F65262C0F2022237A8F9
S315020028A00F901DF053FA0F99109A119800686B4613
S315020028B01960AF211FED370A4EF2FF53CFF60073B0
S315020028C0FFF75EF91298B0F8940000EE100AB8EE1F
S315020028D0400A9FEDE71A80EE010A9FEDE61A20EE06
S315020028E0010A8DED360A9DED360AB4EE410AF1EE85
S315020028F010FA05DDFFE70020C4F2C8203690FFE794
S3150200290044F25800C2F2092000689DED360A3F994A
S315020029106A4651600621116019214FF487724FF4FD
S31502002920827300F029FD4FF48F70ADF884012FE019
S3150200293044F25800C2F209200A90006843F6612167
S31502002940C0F202216A4611601921FC220B929FED08
S31502002950C70A8DED0C0A4EF2FF53CFF60073FFF74E
S315020029600FF90A980B9A9DED0C0A006840F20401D1
S31502002970C2F200216B4619606E214FF68873CFF6BC
S315020029800073FFF7FDF84FF48D70ADF88401FFE791
S3150200299000208DF8D7008DF8D600FFE79DF8D60007
S315020029A0042800F30181FFE700203490339032902F
S315020029B0319030902F909DF8D61047F66060C2F2A3
S315020029C0082000EB0110B0F904000128C0F2E580EE
S315020029D0FFE701208DF8D7009DF8D61047F6606014
S315020029E0C2F2082000EB011080892E902E98002852
S315020029F004D4FFE72E98502803DBFFE700202E9031
S31502002A00FFE72E9940F2DC10C2F2002050F82100B6
S31502002A102FA90991182200F0FBFC099B9DF8D610FC
S31502002A2048F25A40C2F2012000EB411043F28E42B4
S31502002A30C0F2022220211DF089F99DF8D61047F630
S31502002A406060C2F2082000EB011090ED020A9FEDD1
S31502002A50891A20EE010A8DED2D0A9DED2D0A9FEDB4
S31502002A60861AB4EE410AF1EE10FA05DDFFE7002000
S31502002A70C4F2C6202D90FFE79DED2D0AB5EE400A61
S31502002A80F1EE10FA03D5FFE700202D90FFE79DF83F
S31502002A90D61048F2FA40C2F2012000EBC1009DEDC9
S31502002AA02D0ABDEEC00A10EE103A43F20532C0F20C
S31502002AB0022208211DF04AF99DED2D0A9FED6F1A9B
S31502002AC0B4EE410AF1EE10FA06DBFFE74EF2FF50D2
S31502002AD0CFF60070089012E09DED2D0A9FED681A60
S31502002AE0B4EE410AF1EE10FA46F66B30CFF6FF70FD
S31502002AF0A4BF4DF20000CFF6FF700890FFE70898DA
S31502002B002C9044F25800C2F2092006900068BDF9E2
S31502002B108211BDF984319DF8D6C0372207921CFB7B
S31502002B20023248F25A43C2F2012303EB4C139FEDE1
S31502002B304E0A8DED050AFFF73FF89DED050A069848
S31502002B4007990068BDF984219DF8D6C01CFB0122B5
S31502002B502C9B48F2FA41C2F2012101EBCC01EC4670
S31502002B60CCF80010F021FFF70BF80698079A0068D8
S31502002B70BDF984319DF8D61011FB023101F11A021A
S31502002B809DED2D0A2C996B46596008211960192171
S31502002B904FF4827300F0F0FBFFE7FFE79DF8D600E3
S31502002BA001308DF8D600F9E69DF8D700C007B8B90E
S31502002BB0FFE744F25800C2F209200068BDF98421F9
S31502002BC043F21E31C0F202216B4619601921B6EE9C
S31502002BD0000A49F6AA13CFF68873FEF7D1FFFFE77C
S31502002BE0FFE7FFE7FFE744F25800C2F20920006858
S31502002BF00DF0F6F949F20040C6F62F0065904FF443
S31502002C00AF2064906498012820DBFFE764986599F9
S31502002C1001F01F010844639065986290BFF34F8FDD
S31502002C20FFE762984EF66871CEF20001086062987C
S31502002C302030629063982038639063980028F0DC15
S31502002C40FFE7BFF34F8FBFF36F8FFFE745F2F460E5
S31502002C50C0F2042048F22451C2F20121012214F0EA
S31502002C606FF9FFE766B080BDCDCC0C3F8FC2F53E53
S31502002C700000FA440000C8420000C6420000964224
S31502002C8000004842D4D4D4D4B0B588B0DDF834C0FC
S31502002C90DDF830C007900691059204930798022149
S31502002CA0032207F0EDFA0798282107F07DFA079824
S31502002CB006990239059A0232049B0433DDF830C0C4
S31502002CC00CF1040CDDF834E00EF10204EE464FF08E
S31502002CD07F45CEF80850CEF80440CEF800C000F08A
S31502002CE0FFFB0798142107F05FFA07980699043943
S31502002CF0059A0432049B0833DDF830C00CF1080C47
S31502002D00DDF834E00EF10404EE46CEF80850CEF8B3
S31502002D100440CEF800C000F0E3FB0798FF2107F05D
S31502002D2043FA07980699059A049BDDF830C00D9C74
S31502002D30EE4642F63E55CFF62A75CEF80850CEF844
S31502002D400440CEF800C000F0CBFB08B0B0BDD4D42E
S31502002D50B0B588B0DDF838C0DDF834C0DDF830C073
S31502002D60079006910592049307980221032207F021
S31502002D7087FA0798282107F017FA07980699013962
S31502002D80059A0232049B0233DDF830C00CF1020CC4
S31502002D90EE464FF07F44CEF808400624CEF80440B3
S31502002DA0CEF800C000F09CFB0798FF2107F0FCF963
S31502002DB007980699059A049BDDF830C00E9DEE46EB
S31502002DC0CEF80850CEF80440CEF800C000F088FBDA
S31502002DD0079806990831059A04320D9B9FED020A5F
S31502002DE0FEF7EAFE08B0B0BD6666E63ED4D4D4D499
S31502002DF080B588B048F66410C2F2012000690790D7
S31502002E0046F62050C0F2730006904FF0303005901F
S31502002E10079844F6D351C1F26201A0FB0110800962
S31502002E2049F69A12C1F69912A0FB023101EB810111
S31502002E30A0EB41019DF8140008448DF81400079890
S31502002E4048F21F51C5F2EB11A0FB01104009A0FB8D
S31502002E50023101EB8101A0EB41019DF81500084406
S31502002E608DF8150007984CF6CD41CCF6CC41A0FB67
S31502002E700130C008A0FB023202EB8202A0EB420242
S31502002E809DF8160010448DF816000798A0FB012144
S31502002E90C90801EB8101A0EB41019DF81700084426
S31502002EA08DF8170044F25800C2F2092000686A46FB
S31502002EB005A9116050219B229FED250A4EF2FF5370
S31502002EC0CFF60073FEF75CFE9DED070AB8EE400AE8
S31502002ED09FED201A80EE010A9FED1F1A20EE010ACD
S31502002EE08DED040A9DED040AB4EE410AF1EE10FAE4
S31502002EF005DDFFE70020C4F2C8200490FFE79DED40
S31502002F00040A9FED161AB4EE410AF1EE10FA4FF6D4
S31502002F10CC70CFF60070C4BF43F23330CFF6FF70E9
S31502002F20039044F25800C2F2092000689DED040A9B
S31502002F3003996A4651604FF00A0111604FF0A501EC
S31502002F404FF09E024FF0780300F016FA08B080BDEB
S31502002F50CDCC0C3F000048430000C8420000484266
S31502002F6080B5A4B02390239844F2E803C0F202236A
S31502002F7019211191DE229FED6B0AFEF71DFE2398A1
S31502002F806A4647F64141CFF61071916042F60B71DF
S31502002F90C0F2022151601A211160C321DA2269238B
S31502002FA0FFF7D6FE1199239844F24302C0F2022299
S31502002FB06B461A604FF481729FEDEA0A49F6AA132C
S31502002FC0CFF68873FEF7DCFD40F20400C2F2002061
S31502002FD0B0F89400ADF85A00BDF85A0098B9FFE768
S31502002FE043F66162C0F2022217A830211CF0AEFE3F
S31502002FF049F6AA10CFF68870159043F20B30C0F24C
S31502003000022014904CE0BDF85A00B0F5487F15DA5C
S31502003010FFE7BDF85A3043F22542C0F2022217A852
S3150200302030211CF093FE4FF68870CFF60070159093
S3150200303043F23800C0F20220149030E0BDF85A0084
S31502003040B0F5966F15DAFFE7BDF85A3043F225421E
S31502003050C0F2022217A830211CF078FE4DF20000C1
S31502003060CFF6FF70159043F62530C0F20220149079
S3150200307014E0BDF85A3043F22542C0F2022217A8E4
S3150200308030211CF063FE44F24440CFF6FF701590E7
S3150200309043F22170C0F202201490FFE7FFE7FFE738
S315020030A02398159B6A4617A9116019214FF48D7250
S315020030B010929FEDAB0AFEF763FD109A2398159BBB
S315020030C01499EC46CCF80010EB21B6EE000AFEF796
S315020030D057FDBDF85A00012811DBFFE7BDF85A007B
S315020030E000EE100AB8EE400A9FED9F1A80EE010A22
S315020030F09FED9E1A20EE010A8DED0F0A04E0B1EE55
S31502003100040A8DED0F0AFFE79DED0F0A8DED130AF6
S315020031109DED130A9FED951AB4EE410AF1EE10FAEF
S3150200312007DD01E0CDCC0C3F0020C4F2C82013908D
S31502003130FFE723989DED130A15996A465160082107
S31502003140116019210D914FF49A724FF482730E9306
S3150200315000F012F940F20400C2F200200B9090ED4A
S31502003160260A90ED271AB7EEC00AB7EEC11A6846CC
S3150200317080ED021B80ED000B43F23D02C0F20222FB
S3150200318017A80990302108911CF0E0FD099A0D99C3
S3150200319023986B461A604FF4A372B6EE000A4EF2FB
S315020031A0FF53CFF60073FEF7EBFC0D99239843F21B
S315020031B01B02C0F202226B461A604FF4B4729FEDF4
S315020031C0690A8DED070A49F6AA13CFF688730A93A0
S315020031D0FEF7D6FC089909980B9A92ED280A92ED09
S315020031E0291A92ED2A2AB7EEC00AB7EEC11AB7EE2D
S315020031F0C22A6A4682ED042B82ED021B82ED000B87
S3150200320042F6DA52C0F202221CF0A0FD9DED070A38
S31502003210099B0D9923984FF4BF72FEF7CDFC0899CE
S3150200322009980B9A92ED2B0A92ED2C1A92ED2D2A01
S31502003230B7EEC00AB7EEC11AB7EEC22A6A4682EDE7
S31502003240042B82ED021B82ED000B43F2B072C0F238
S3150200325002221CF07BFD9DED070A099A0D9923981F
S315020032606B461A604FF4CB724DF6EE53CFF6CC7323
S31502003270FEF786FC089909980B9A92F88C304FEA69
S31502003280C37E43F66A2CC0F2022C43F23003C0F22C
S315020032900223BEF1000F18BF6346D2F88420EC4623
S315020032A0CCF8002042F61572C0F202221CF04EFD46
S315020032B0099A0D990B9890F88C00C007002844F2E1
S315020032C04440CFF6FF701CBF4FF68870CFF60070F1
S315020032D012902398129BEC46CCF800204FF4DA7237
S315020032E09FED230A8DED0C0AFEF74AFC0A9B9DED23
S315020032F00C0A0D99239844F29C12C0F20222EC4663
S31502003300CCF800204FF4E672FEF73AFC0B9A9DEDDC
S315020033100C0A0D9923986B461A604FF4F1724FF618
S315020033208873CFF60073FEF72BFC0D990E9B23983C
S31502003330EC4647F6D402CFF60072CCF8082043F6E4
S31502003340D572C0F20222CCF804204FF01A02CCF851
S31502003350002040F20222FFF7FBFC24B080BD00BF32
S31502003360CDCC0C3F8FC2F53E0000FA440000C842A5
S315020033706666E63ED4D4D4D410B588B0DDF82CC047
S31502003380DDF828C007900691059204938DED030A95
S3150200339007980699059A049BDDF828C0EE4641F681
S315020033A02964CFF61C74CEF80440CEF800C000F0B3
S315020033B037F99DED040AB8EEC00A9DED031A20EE18
S315020033C0010A9FED121A80EE010ABDEEC00A8DEDCA
S315020033D0020A0298012817DBFFE70298049988423D
S315020033E003DDFFE704980290FFE707980699059A1E
S315020033F0029BDDF828C00B9CEE46CEF80440CEF8C0
S3150200340000C000F00DF9FFE708B010BD0000C84289
S3150200341086B005900491039200200290FFE705987A
S315020034200299415C0020009041B1FFE7029803999E
S31502003430013988425FEAAF900090FFE70098C00723
S3150200344088B1FFE705980299405C2C2801D1FFE775
S3150200345009E00598029A805C04998854FFE702986D
S3150200346001300290DBE70499029A002088540498FE
S31502003470007861280ADBFFE7049800787A2805DCE1
S31502003480FFE70499087820380870FFE701200190C9
S31502003490FFE704980199405CF8B1FFE704990198A7
S315020034A0084410F8010C202812D1FFE7049801996C
S315020034B0405C61280CDBFFE704980199405C7A289E
S315020034C006DCFFE70499019A885C20388854FFE7F6
S315020034D0FFE7019801300190DBE706B07047D4D4CC
S315020034E080B586B0DDF828C0DDF824C0DDF820C03E
S315020034F0059004910392029305980A9A002101917C
S3150200350006F036FE05980499DDF824C061440901E7
S31502003510039A1201029BA3EB4C031B01DDF820C0A8
S315020035204FEA0C1C0FFA8CFCEE46CEF800C009B22C
S315020035301BB212B20DF06CF9059804990901039AAF
S31502003540DDF824E072441201029B1B01DDF820C063
S31502003550ACEB4E0C4FEA0C1C0FFA8CFCEE46CEF886
S3150200356000C012B209B21BB20DF052F9DDF804C066
S3150200357005980499099B19440901039A1A441201F0
S315020035801B01EE46CEF800C009B212B21BB20DF014
S31502003590C7F9DDF804C005980499029A1144099BFB
S315020035A0C91A0901039A1A4412011B01EE46CEF802
S315020035B000C012B209B21BB20DF0B2F9DDF804C0B6
S315020035C005980499099B19440901039ADDF820E03C
S315020035D07244D21A12011B01EE46CEF800C009B29D
S315020035E012B21BB20DF09CF9DDF804C005980499DD
S315020035F0029A1144099BC91A0901039ADDF820E0CF
S315020036007244D21A12011B01EE46CEF800C009B26C
S3150200361012B21BB20DF084F906B080BDD4D4D4D454
S3150200362080B588B0DDF82CC0DDF828C00790069179
S31502003630059204930498012804DBFFE70A98002800
S3150200364001DCFFE768E00A9800EBD07040100390B7
S3150200365007980B9A002106F08BFD04980399B0EBAC
S31502003660410F45DDFFE707980699DDF80CC0614476
S315020036700901059A1201049BA3EB4C031B01DDF819
S3150200368028C04FEA0C1C0FFA8CFCEE46CEF800C09E
S3150200369009B21BB212B20DF0BBF807980699039B4A
S315020036A019440901059A1A4412011B01EE464FF00C
S315020036B0000CCDF808C0CEF800C009B212B21BB297
S315020036C00DF02EF9DDF808C007980699049A114400
S315020036D0039BC91A0901059A1A4412011B01EE46F7
S315020036E0CEF800C012B209B21BB20DF019F913E0FE
S315020036F007980699039B19440901059A1A4412016F
S315020037001B01EE464FF0000CCEF800C009B212B211
S315020037101BB20DF005F9FFE708B080BDD4D4D4D4AE
S3150200372080B59AB08DF867009DF8670001380146AA
S315020037301891172800F29B811899DFE811F01800FA
S315020037402800380048005800680078008800980071
S31502003750A800B800C800F8000801D800E80028014F
S31502003760380118014801580168017801880148F2B8
S315020037706450C2F20120179043F67161C0F2022131
S315020037801CF016FB1799002002F0DEFD70E148F2EC
S315020037906450C2F20120169043F6C801C0F202211B
S315020037A01CF006FB1699002002F0CEFD60E148F2FD
S315020037B06450C2F20120159043F23631C0F2022162
S315020037C01CF0F6FA1599002002F0BEFD50E148F20F
S315020037D06450C2F20120149043F6DF41C0F2022186
S315020037E01CF0E6FA1499002002F0AEFD40E148F220
S315020037F06450C2F20120139043F22621C0F2022144
S315020038001CF0D6FA1399002002F09EFD30E148F230
S315020038106450C2F20120129043F2CF71C0F202212B
S315020038201CF0C6FA1299002002F08EFD20E148F241
S315020038306450C2F20120119043F2D251C0F2022129
S315020038401CF0B6FA1199002002F07EFD10E148F252
S315020038506450C2F20120109042F62A71C0F202218F
S315020038601CF0A6FA1099002002F06EFD00E148F263
S315020038706450C2F201200F9043F29141C0F202213C
S315020038801CF096FA0F99002002F05EFDF0E048F275
S315020038906450C2F201200E9043F6A861C0F20221E2
S315020038A01CF086FA0E99002002F04EFDE0E048F286
S315020038B06450C2F201200D9044F2AA11C0F2022114
S315020038C01CF076FA0D99002002F03EFDD0E048F297
S315020038D06450C2F201200C9043F2E641C0F202218A
S315020038E01CF066FA0C99002002F02EFDC0E048F2A8
S315020038F06450C2F201200B9042F67271C0F20221AC
S315020039001CF056FA0B99002002F01EFDB0E048F2B8
S315020039106450C2F201200A9042F69761C0F2022177
S315020039201CF046FA0A99002002F00EFDA0E048F2C9
S315020039306450C2F20120099043F22671C0F20221BC
S315020039401CF036FA0999002002F0FEFC90E048F2DB
S315020039506450C2F20120089043F60611C0F2022119
S315020039601CF026FA0899002002F0EEFC80E048F2EC
S315020039706450C2F20120079043F66211C0F202219E
S315020039801CF016FA0799002002F0DEFC70E048F2FD
S315020039906450C2F20120069043F21C61C0F2022179
S315020039A01CF006FA0699002002F0CEFC60E048F20E
S315020039B06450C2F20120059043F63B71C0F2022127
S315020039C01CF0F6F90599002002F0BEFC50E048F220
S315020039D06450C2F20120049043F24E11C0F2022159
S315020039E01CF0E6F90499002002F0AEFC40E048F231
S315020039F06450C2F20120039043F61501C0F202217F
S31502003A001CF0D6F90399002002F09EFC30E048F241
S31502003A106450C2F20120029043F26D21C0F20221EB
S31502003A201CF0C6F90299002002F08EFC20E048F252
S31502003A306450C2F20120019043F62A31C0F20221FB
S31502003A401CF0B6F90199002002F07EFC10E048F263
S31502003A506450C2F20120009043F6E971C0F20221DD
S31502003A601CF0A6F90099002002F06EFC00E0FFE7C8
S31502003A7000BE1AB080BDD4D480B584B0039044F69B
S31502003A801400019001F0FCFA014601988DF80B1022
S31502003A909DF80B1001F03F018DF80B109DF80B10ED
S31502003AA0039A41EA82118DF80B109DF80B1001F072
S31502003AB0BBFA04B080BDD4D480B544F20220002102
S31502003AC001F0B2FA80BDD4D480B544F202200F21AF
S31502003AD001F0AAFA80BDD4D480B5D4B044F29000E5
S31502003AE0C2F209200E9045F29871C0F2042112F03A
S31502003AF05BF90E9812F078F901F0DEFA4FF496703F
S31502003B000F904FF47A71109115F052FD01F074FB8B
S31502003B1001F096FB01F0B8FB10991420309015F0D5
S31502003B2047FD43F20310119001F0AAFA01461198DB
S31502003B308DF80F119DF80F1101F0FD018DF80F118F
S31502003B409DF80F1101F070FA43F20800349001F06B
S31502003B5097FA014634988DF80E119DF80E1141F030
S31502003B6080018DF80E119DF80E1101F05DFA0F9885
S31502003B70109915F01DFD11981121259101F054FAA5
S31502003B8034988221189101F04FFA1099052023905A
S31502003B9015F00EFD349842212B9101F045FA119849
S31502003BA00321219101F040FA43F2170031900021DE
S31502003BB0339101F039FA339943F2180001F034FADD
S31502003BC043F234001590182101F02EFA43F2370021
S31502003BD01321129101F028FA43F2081001213891BB
S31502003BE001F022FA43F23060362101F01DFA43F267
S31502003BF031600E21249101F017FA43F23260E2217C
S31502003C0001F012FA43F2336012211E9101F00CFA0E
S31502003C1043F22160E021169101F006FA43F20470A4
S31502003C20A02101F001FA43F203705A2101F0FCF9D6
S31502003C3043F21570782101F0F7F9389943F21770BB
S31502003C4001F0F2F943F20B7060212F9101F0ECF9C9
S31502003C5043F205701A21139101F0E6F943F60510B5
S31502003C600221359101F0E0F943F6061010211B916D
S31502003C7001F0DAF943F601100A21199101F0D4F99B
S31502003C801E9943F2317001F0CFF94FF458500821D2
S31502003C90369101F0C9F943F20160332101F0C4F90A
S31502003CA02F9943F22D0001F0BFF943F22060522111
S31502003CB001F0BAF943F21B70202101F0B5F944F282
S31502003CC01C70502101F0B0F943F61320432101F094
S31502003CD0ABF9339943F6182001F0A6F943F61920F9
S31502003CE0F8211C9101F0A0F9129943F2356001F016
S31502003CF09BF9219943F2366001F096F943F234605A
S31502003D004021379101F090F9389943F2226001F08F
S31502003D108BF943F60140342101F086F943F604405B
S31502003D2028212C9101F080F943F6054098211A9139
S31502003D3001F07AF9339943F6064001F075F93399A1
S31502003D4043F6084001F070F943F609401C2114912C
S31502003D5001F06AF943F60A409C2101F065F93799A8
S31502003D6043F60B4001F060F933994FF4605001F0CD
S31502003D705BF9339943F6010001F056F9339943F69C
S31502003D80020001F051F943F603003A9004213B91F7
S31502003D9001F04AF9199943F6040001F045F943F690
S31502003DA005003F2101F040F943F606000721209164
S31502003DB001F03AF943F607009F2101F035F93399EC
S31502003DC043F6100001F030F91B9943F6110001F099
S31502003DD02BF9339943F6120001F026F9339943F68B
S31502003DE0130001F021F943F208706421279101F0D2
S31502003DF01BF9389943F6082001F016F9359944F271
S31502003E00010001F011F9139944F2050001F00CF9D1
S31502003E1033994FF4405001F007F9149943F2020026
S31502003E2001F002F943F20400FF21329101F0FCF89D
S31502003E3043F20600C32101F0F7F843F20E004521D2
S31502003E4001F0F2F8369943F22E0001F0EDF83698B9
S31502003E508DF80D014FF48640322101F0E5F81598F0
S31502003E6038998DF80C119DF80C219DF80D1141EA37
S31502003E7002118DF80B119DF80B1101F0D5F833994B
S31502003E8045F21F0001F0D0F83B9944F2074001F0D9
S31502003E90CBF8339944F20E4001F0C6F84FF4A04035
S31502003EA0A72101F0C1F832994FF4A34001F0BCF802
S31502003EB045F28110F22101F0B7F8339945F28210EA
S31502003EC001F0B2F8309945F2831001F0ADF845F2EF
S31502003ED08410252101F0A8F845F2851024212A91A3
S31502003EE001F0A2F845F2861009211F9101F09CF813
S31502003EF01F9945F2871001F097F81F9945F288102D
S31502003F0001F092F845F28910752101F08DF845F21B
S31502003F108A10542101F088F8169945F28B1001F0A7
S31502003F2083F845F28C10B22101F07EF82B9945F206
S31502003F308D1001F079F845F28E103D2101F074F8EA
S31502003F4045F28F10562101F06FF845F29010462186
S31502003F50269101F069F81C9945F2911001F064F876
S31502003F603B9945F2921001F05FF845F293107021E9
S31502003F7001F05AF845F29410F021179101F054F825
S31502003F80179945F2951001F04FF8219945F29610CE
S31502003F9001F04AF8389945F2971001F045F83B9935
S31502003FA045F2981001F040F81E9945F2991001F079
S31502003FB03BF83B9945F29A1001F036F8339945F2EF
S31502003FC09B1001F031F845F29C100621289101F070
S31502003FD02BF8189945F29D1001F026F845F29E102D
S31502003FE0382101F021F845F281301E2101F01CF83A
S31502003FF045F282305B2101F017F8369945F283309B
S3150200400001F012F8199945F2843001F00DF845F2E3
S3150200401085307E2101F008F845F28630882101F0CC
S3150200402003F845F287307C2100F0FEFF45F2883026
S315020040306C2100F0F9FF1B9945F2893000F0F4FF7C
S31502004040389945F28A3000F0EFFF1A9945F28B3023
S3150200405000F0EAFF36994FF4A64000F0E5FF45F27C
S31502004060013030212D9100F0DFFF1B9945F202301D
S3150200407000F0DAFF339945F2033000F0D5FF3699A6
S3150200408045F2043000F0D0FF2D9945F2053000F0DC
S31502004090CBFF369945F2063000F0C6FF45F20730EF
S315020040A0162100F0C1FF369945F2093000F0BCFF37
S315020040B02D9945F20A3000F0B7FF3B9945F20B30D5
S315020040C000F0B2FF289945F20C3000F0ADFF3899A6
S315020040D04FF4A94000F0A8FF369945F2814000F05E
S315020040E0A3FF309945F2824000F09EFF2C9945F2DB
S315020040F0834000F099FF45F28440512100F094FF7D
S3150200410045F28540652100F08FFF45F28640712118
S3150200411000F08AFF45F287407D2100F085FF45F2D7
S315020041208840872100F080FF45F28940912100F006
S315020041307BFF45F28A409A2100F076FF45F28B40DA
S31502004140AA2100F071FF45F28C40B82100F06CFF05
S3150200415045F28D40CD2100F067FF45F28E40DD210C
S3150200416000F062FF45F28F40EA2100F05DFF45F262
S3150200417090401D2100F058FF28994FF4AB4000F003
S3150200418053FF379945F2835000F04EFF1B9945F2D3
S31502004190845000F049FF1B9945F2895000F044FF14
S315020041A0339945F28A5000F03FFF1C9945F28B5035
S315020041B000F03AFF3B9945F21D0000F035FF4FF43F
S315020041C0B040232100F030FF309945F6010000F09F
S315020041D02BFF45F602000F211D9100F025FF1D99C8
S315020041E045F6030000F020FF1E9945F6040000F094
S315020041F01BFF45F6050026212E9100F015FF45F618
S3150200420006000C2100F010FF369945F6070000F073
S315020042100BFF239945F6080000F006FF239945F6A1
S31502004220090000F001FF369945F60A0000F0FCFE8F
S3150200423045F60B000D21229100F0F6FE369945F661
S315020042400C0000F0F1FE219945F60D0000F0ECFE9F
S31502004250339945F60E0000F0E7FE339945F60F0056
S3150200426000F0E2FE219945F6100000F0DDFE1F99EE
S3150200427045F6110000F0D8FE209945F6120000F02E
S31502004280D3FE219945F6130000F0CEFE339945F68A
S31502004290140000F0C9FE389945F6150000F0C4FE78
S315020042A0219945F6160000F0BFFE369945F617002D
S315020042B000F0BAFE229945F6180000F0B5FE3699CE
S315020042C045F6190000F0B0FE239945F61A0000F0F3
S315020042D0ABFE289945F61B0000F0A6FE369945F678
S315020042E01C0000F0A1FE249945F61D0000F09CFE7C
S315020042F045F61E00292100F097FE45F61F001721FC
S3150200430000F092FE259945F6200000F08DFE2599D3
S3150200431045F6210000F088FE45F62200152100F040
S3150200432083FE2C9945F6230000F07EFE269945F67B
S31502004330240000F079FE2E9945F6250000F074FE61
S31502004340369945F6260000F06FFE2E9945F62700AF
S3150200435000F06AFE279945F6280000F065FE2E99C0
S3150200436045F6290000F060FE2A9945F62A0000F07B
S315020043705BFE45F62B002221299100F055FE2A9973
S3150200438045F62C0000F050FE2A9945F62D0000F065
S315020043904BFE289945F62E0000F046FE299945F671
S315020043A02F0000F041FE379945F6300000F03CFE42
S315020043B02B9945F6310000F037FE2A9945F6320070
S315020043C000F032FE2E9945F6330000F02DFE2A99B2
S315020043D045F6340000F028FE299945F6350000F02E
S315020043E023FE299945F6360000F01EFE2E9945F663
S315020043F0370000F019FE45F63800442100F014FE9D
S315020044002A9945F6390000F00FFE2E9945F63A0034
S3150200441000F00AFE2C9945F63B0000F005FE2B99AA
S3150200442045F63C0000F000FE45F63D00CE2100F0C8
S31502004430FBFD339945F2250000F0F6FD2D9943F672
S315020044400F2000F0F1FD2C9943F6102000F0ECFD50
S315020044502D9943F61B2000F0E7FD2E9943F61E2008
S3150200446000F0E2FD2F9943F6112000F0DDFD3099B0
S3150200447043F61F2000F0D8FD3B9945F23D0000F0BF
S31502004480D3FD3B994FF4904000F0CEFD43F2070076
S31502004490FB2100F0C9FD3198339900F0C5FD329930
S315020044A043F21D0000F0C0FD45F20100A32100F019
S315020044B0BBFD00F0A5FA3398FFF7DEFA349835997A
S315020044C000F0B2FD369943F6074000F0ADFD37998C
S315020044D043F6200000F0A8FD389943F6210000F0CB
S315020044E0A3FD43F614003121399100F09DFD39995F
S315020044F043F6150000F098FD3A983B9900F094FDBA
S315020045000020C4F2225041900020C4F2F3404090B1
S315020045104FF42070ADF8FE004FF4F070ADF8FC00D9
S31502004520BDF8FE0000EE100AB8EEC00A9FEDF41ABE
S31502004530B4EE410AF1EE10FA05D5FFE79FEDF00A57
S315020045408DED0D0A08E0BDF8FE0000EE100AB8EE89
S31502004550C00A8DED0D0AFFE79DED0D0ABCEEC00AFD
S3150200456010EE100AADF8FE00BDF8FC0000EE100ACF
S31502004570B8EEC00A9FEDE31AB4EE410AF1EE10FA64
S3150200458005D5FFE79FEDDF0A8DED0C0A08E0BDF8C1
S31502004590FC0000EE100AB8EEC00A8DED0C0AFFE729
S315020045A09DED0C0ABCEEC00A10EE100AADF8FC0036
S315020045B0BDF8FE00C0F52260ADF8FA00BDF8FC00B9
S315020045C0C0F5F360ADF8F800BDF8FA004008ADF8A2
S315020045D0F600BDF8FA00400800EE100AB8EEC01A5E
S315020045E09FEDC70A30EE410AB7EE001A30EE410AD5
S315020045F0BCEEC00A10EE100AADF8F400BDF8F810D1
S315020046000420079000EB5100ADF8F200BDF8F80067
S31502004610400800EE100AB8EEC02A9FEDBA0A30EE44
S31502004620420A30EE410ABCEEC00A10EE100AADF89C
S31502004630F0009DF8F7104FF4605000F0F5FC9DF87D
S31502004640F61043F6010000F0EFFC9DF8F31043F676
S31502004650020000F0E9FC9DF8F21043F6030000F0B8
S31502004660E3FC9DF8F51043F6040000F0DDFC9DF82E
S31502004670F41043F6050000F0D7FC9DF8F11043F65E
S31502004680060000F0D1FC9DF8F01043F6070000F09A
S31502004690CBFC43F60800012100F0C6FC43F60900F4
S315020046A0402100F0C1FC43F60A0000210B9100F004
S315020046B0BBFC43F60B00F02100F0B6FC48F678107E
S315020046C0C2F20120039090ED000AB8EE400AB6EE5F
S315020046D0001A8DED041A20EE010A9FED8B1A8DED5C
S315020046E0051A80EE010A9FED891A8DED061A80EEF3
S315020046F0010AB7EEC00A8DED520B9DED520BB1EEDB
S31502004700C00B8DED500B9DED500B9FED7B1B8DED80
S31502004710001B20EE010BBCEEC00B10EE100AC0F31C
S31502004720072143F60C0000F07FFC9DED001B039869
S315020047309DED044A9DED053A9DED062A90ED000A8F
S31502004740B8EE400A20EE040A80EE030A80EE020A60
S31502004750B7EEC00A8DED4E0B9DED4E0BB1EEC00BC2
S315020047608DED4C0B9DED4C0B20EE010BBCEEC00B00
S3150200477010EE100AC1B243F60D0000F055FC039884
S315020047809DED043A9DED052A9DED061A90ED000A6F
S31502004790B8EE400A20EE030A80EE020A80EE010A13
S315020047A0B7EEC00A8DED4A0B9DED4A0BB1EEC00B7A
S315020047B08DED480B9DED480BBCEEC00B10EE100ABA
S315020047C0C0F3072143F60E0000F02EFC03989DED80
S315020047D0043A9DED052A9DED061A90ED000AB8EE03
S315020047E0400A20EE030A80EE020A80EE010AB7EEC4
S315020047F0C00A8DED460B9DED460BB1EEC00B8DED5D
S31502004800440B9DED440BBCEEC00B10EE100AC1B278
S3150200481043F60F0000F008FC43F61300062100F0F1
S3150200482003FC0B9943F2186000F0FEFB43F21260A0
S31502004830292100F0F9FB43F20970522100F0F4FB42
S3150200484043F20C700321099100F0EEFB099943F63D
S31502004850022000F0E9FB43F60320D821089100F07C
S31502004860E3FB43F60920272100F0DEFB0B9943F612
S315020048700A2000F0D9FB43F60B20F62100F0D4FB08
S31502004880099943F60E2000F0CFFB079943F60D2057
S3150200489000F0CAFB099943F6142000F0C5FB0899FB
S315020048A043F6152000F0C0FB44F2040002210A91EF
S315020048B000F0BAFB099944F2137000F0B5FB44F21A
S315020048C00B60352100F0B0FB44F20C60222100F0AF
S315020048D0ABFB44F637000A2100F0A6FB0A9943F621
S315020048E0240000F0A1FB45F20100A32100F09CFB8D
S315020048F00B9854B080BD00BF000000605555F53FCF
S31502004900000022450000F34400005C42ABAAAA3F25
S3150200491081B00090009848F67C11C2F2012108602D
S3150200492001B07047D4D4D4D480B586B0059005982A
S3150200493000688DF813000598406803900598806812
S3150200494002909DF81300012829D1FFE70298400939
S31502004950C00718B3FFE70598C068FFF7D9FF48F606
S315020049608010C2F20120019000680090FCF708F95D
S3150200497001460098FCF70CF948F66411C2F20121CF
S315020049800860FCF7FDF8019908604DF63470C2F232
S3150200499008200068012117F043F9FFE700E0FFE76E
S315020049A006B080BDD4D4D4D488B0079007980078D6
S315020049B00146009104281ED80099DFE801F00B0396
S315020049C0170F1300079840680690079840788DF8ED
S315020049D0170011E00798406804900DE007984068B8
S315020049E0039009E007984068029005E0079840782E
S315020049F08DF8070000E0FFE708B07047D4D4D4D49E
S31502004A0080B5A4B045F2010000F03AFBC0F34010B5
S31502004A108DF88F0043F2340000F032FB00F00F00F5
S31502004A2043F23431C3F23331A0FB01108DF88E000C
S31502004A300420209001208DF87F001E908DF87700CB
S31502004A408DF876008DF875008DF874008DF8730078
S31502004A504FF0FF301B9002208DF87F00FFE79DF894
S31502004A607F000128C0F23E81FFE701208DF8760023
S31502004A70FFE79DF87600082800F32D81FFE7012065
S31502004A808DF87300FFE79DF87300082800F31C8178
S31502004A90FFE70E208DF87500FFE79DF875000128E7
S31502004AA0C0F20B81FFE70E208DF87400FFE79DF838
S31502004AB074000128C0F2FA80FFE701201E90FFE78A
S31502004AC01E98082800F3EB80FFE704202090FFE7FA
S31502004AD02098FC2800F3D980FFE720981E999DF8BC
S31502004AE07F204A4343F20061C0F26E1191FBF2F15C
S31502004AF048431A901A9840F60101C2F6AF718842ED
S31502004B0001D3FFE7C1E01A989DF873109DF874204F
S31502004B105143B0FBF1F0199019994EF24000C0F6DC
S31502004B200630401A04900028059002D504984042A7
S31502004B3005900598189020981E999DF875204A436D
S31502004B4043F20061C0F26E1191FBF2F148431790F5
S31502004B5017989DF87410B0FBF1F0169017989DF80F
S31502004B607F10B0FBF1F0159015989DF88E10B0FBF2
S31502004B70F1F0149014989DF87610B0FBF1F01390B2
S31502004B8014989DF874109DF873205143B0FBF1F010
S31502004B901290129A1399B2FBF1F000FB112040B960
S31502004BA0FFE7169A1399B2FBF1F000FB112008B148
S31502004BB0FFE761E012981399B0FBF1F048F6841111
S31502004BC0C2F20121087016981399B0FBF1F048F66B
S31502004BD08511C2F2012108709DF88F0080B9FFE7A6
S31502004BE048F68510C2F201200078082808D1FFE7AE
S31502004BF048F68410C2F201200078022814D0FFE79A
S31502004C009DF88F00B8B3FFE748F68510C2F201207F
S31502004C10007802282FD1FFE748F68410C2F201205D
S31502004C200078012827D1FFE718981B99884221D8D6
S31502004C30FFE718981B9020988DF886009DF87F0054
S31502004C408DF887001E988DF888009DF877008DF8FC
S31502004C5089009DF876008DF88A009DF875008DF81A
S31502004C608B009DF874008DF88C009DF873008DF80A
S31502004C708D00FFE7FFE7FFE720987F284FF001014D
S31502004C8051EAD1910844209022E7FFE71E980328B3
S31502004C904FF0010151EAD19108441E9010E7FFE757
S31502004CA09DF8740001388DF8740000E7FFE79DF85F
S31502004CB0750001388DF87500EFE6FFE79DF8730081
S31502004CC040008DF87300DEE6FFE79DF876004000AF
S31502004CD08DF87600CDE6FFE79DF87F0001388DF866
S31502004CE07F00BCE69DF8860020909DF887008DF82F
S31502004CF07F009DF888001E909DF889008DF8770048
S31502004D009DF88A008DF876009DF88B008DF8750067
S31502004D109DF88C008DF874009DF88D008DF8730057
S31502004D2020981E999DF875204A4343F20061C0F20D
S31502004D306E1191FBF2F25043119011989DF8742076
S31502004D40B0FBF2F0109011989DF87F20B0FBF2F0C4
S31502004D500F900F989DF88E20B0FBF2F00E900E98F1
S31502004D609DF87620B0FBF2F00D900E989DF8742017
S31502004D709DF873305A43B0FBF2F00C900C980D9AE2
S31502004D80B0FBF2F048F68412C2F2012210701098BB
S31502004D900D9AB0FBF2F048F68512C2F201221070AB
S31502004DA020989DF87F201E9B5A4391FBF2F14843BF
S31502004DB00B900B9840F60001C2F6AF71884201D8FB
S31502004DC0FFE70FE043F62150C0F2022043F2C3226E
S31502004DD0C0F2022242F6F753C0F202234FF4867162
S31502004DE014F0DEFB0B989DF875109DF87720514361
S31502004DF09DF876205143B0FBF1F148F67810C2F2E5
S31502004E00012001600B999DF874209DF873305A4376
S31502004E10B1FBF2F248F68811C2F201210A6000687B
S31502004E200968884201D3FFE70FE043F62150C0F23A
S31502004E30022043F2C322C0F2022243F6B513C0F2A5
S31502004E40022340F20F1114F0ABFB48F68810C2F2AF
S31502004E500120006841F6C071CFF2F9410844029080
S31502004E600028039002D502984042039003980A90C4
S31502004E700A9841F64751C0F20E01884201DCFFE76B
S31502004E800FE043F62150C0F2022043F2C322C0F2E1
S31502004E90022244F2F603C0F2022340F2111114F088
S31502004EA07FFB9DF875109DF8740040EA01108DF89D
S31502004EB027009DF8271043F2350000F0B5F8209838
S31502004EC08DF826009DF8261043F2360000F0ACF865
S31502004ED09DF87F0002285FEA1F911E9840EA0110A2
S31502004EE08DF825009DF8251043F2370000F09CF856
S31502004EF01E98012814D0FFE71E98022810D0FFE75B
S31502004F001E9803280CD0FFE71E98042808D0FFE756
S31502004F101E98062804D0FFE71E98082801D1FFE74D
S31502004F200FE043F62150C0F2022043F2C322C0F240
S31502004F30022243F63B43C0F2022340F2211114F04F
S31502004F402FFB03208DF8240040F60270C0F60F7086
S31502004F5008900F20C0F6017007909DF8730007A90C
S31502004F600191085C00019DF877208A5C40EA820084
S31502004F709DF87620895C08438DF81B009DF81B106E
S31502004F8043F2081000F050F801989DF87310405C47
S31502004F900E2801DCFFE70FE043F62150C0F20220A3
S31502004FA043F2C322C0F2022244F25503C0F20223A4
S31502004FB04FF4957114F0F4FA9DF8771007A8405C47
S31502004FC00E2801DCFFE70FE043F62150C0F2022073
S31502004FD043F2C322C0F2022243F27733C0F2022323
S31502004FE040F22B1114F0DCFA9DF8761007A8405C0B
S31502004FF00E2801DCFFE70FE043F62150C0F2022043
S3150200500043F2C322C0F2022242F61063C0F2022326
S315020050104FF4967114F0C4FA48F68810C2F20120D1
S31502005020006824B080BDD4D480B584B0ADF80E003B
S315020050308DF80D10002002909DF80D008DF80800E5
S3150200504044F2FC00C2F209203C21012210F098F839
S31502005050BDF80E0002A9FBF7F3FDBDF80E0000F045
S315020050600FF88DF807009DF807009DF80D1088428D
S3150200507001D0FFE7FFE704B080BDD4D4D4D4D4D4A2
S3150200508080B582B0ADF8060000208DF8050044F226
S31502005090FC00C2F209203C21012210F071F8BDF891
S315020050A006000DF10501FBF707FE9DF8050002B0AB
S315020050B080BDD4D4D4D4D4D480B5FFE700F00CF8A4
S315020050C040F20970002100F033F800F061F8FFE7C2
S315020050D080BDD4D4D4D4D4D484B000200090EFF3CD
S315020050E0108001900198009001200390039880F3AC
S315020050F0108844F2C810C2F20920006848B9FFE7D6
S3150200510040F61451C4F24001002008704020087095
S31502005110FFE744F2C811C2F20921086801300860AB
S3150200512000980290029880F3108804B07047D4D495
S3150200513083B0ADF80A008DF80910BDF80A206FF0A9
S315020051403F0101EA9200D2B200EB820040F6000271
S31502005150C4F2400280580190019843F6FE73CFF6DE
S31502005160FE73184001909DF80900019B18430090B8
S31502005170009840F00400BDF80A3001EA9301DBB260
S3150200518001EB8301885003B07047D4D4D4D4D4D46D
S3150200519084B000200090EFF31080019001980090F7
S315020051A001200390039880F3108844F2C810C2F2DB
S315020051B00920006840B1FFE744F2C811C2F2092192
S315020051C0086801380860FFE744F2C810C2F20920F5
S315020051D0006848B9FFE740F61451C4F240010020C6
S315020051E0087080200870FFE700980290029880F30A
S315020051F0108804B07047D4D480B5FFE7FFF76CFF80
S3150200520040F209700021FFF793FFFFF7C1FFFFE7A6
S3150200521014204FF47A7114F0CBF9FFE7FFF75CFF25
S3150200522040F209700121FFF783FFFFF7B1FFFFE7A5
S3150200523014204FF47A7114F0BBF980BDD4D4D4D4BF
S3150200524080B5FFE7FFF748FF40F209700021FFF73C
S315020052506FFFFFF79DFFFFE714204FF47A7114F0FA
S31502005260A7F9FFE7FFF738FF40F209700121FFF7C0
S315020052705FFFFFF78DFFFFE714204FF47A7114F0FA
S3150200528097F980BDD4D4D4D480B582B043F203104A
S315020052900090FFF7F5FE014600988DF807109DF87D
S315020052A0071001F0FD018DF807109DF80710FFF7B2
S315020052B0BBFE43F208008221FFF7B6FE4FF496705A
S315020052C04FF47A7114F074F902B080BDD4D4D4D4F8
S315020052D02DE9F043BBB03A903991389237933A9818
S315020052E0369045F20831C0F2042131A891E81C50EB
S315020052F080E81C5003220B923092E0210A912F91F2
S315020053002E9101200D902D902C922B9170210C91B3
S315020053102A91299039983699319ADDF8C8C0DDF874
S31502005320CCE0349C359D6B465D621C62C3F81CE082
S31502005330C3F818C05A6104220E921A610DF1A40C28
S31502005340C3F80CC09A602DAA5A6045F27822C0F2C0
S3150200535004221A6045F29822C0F2042245F28823FA
S31502005360C0F2042300F05CF9DDF828C00B9B0C990F
S315020053700D980E9A45F21C34C0F204240DF1900EDB
S3150200538094E8E0038EE8E0032393CDF888C02191E8
S3150200539020901F931E911D911C9036983799DDF827
S315020053A090C0DDF894E0269C279D289E6B465E629F
S315020053B01D62DC61C3F818E0C3F814C01A610DF16E
S315020053C0700CC3F80CC09A6020AA5A6045F2E82213
S315020053D0C0F204221A6045F2F822C0F2042245F213
S315020053E0C823C0F2042300F01BF9DDF828C00B9B8A
S315020053F00C990D980E9A45F23034C0F204240DF140
S315020054005C0E94E8E0038EE8E0031693CDF854C0F0
S31502005410149113901293119110910F903698389916
S31502005420DDF85CC0DDF860E0199C1A9D1B9E6B4698
S315020054305E621D62DC61C3F818E0C3F814C01A612B
S315020054400DF13C0CC3F80CC09A6013AA5A6045F2DF
S31502005450D822C0F204221A6045F2A822C0F204221F
S3150200546045F2B823C0F2042300F0DAF83BB0BDE8F7
S31502005470F083D4D4D4D4D4D42DE9F043BBB03A903B
S315020054803991389237933A98369045F2D431C0F230
S31502005490042131A891E81C5080E81C5003220B928B
S315020054A03092E0210A912F912E9101200D902D909C
S315020054B02C922B9170210C912A9129903998369928
S315020054C0319ADDF8C8C0DDF8CCE0349C359D6B46D8
S315020054D05D621C62C3F81CE0C3F818C05A6104225C
S315020054E00E921A610DF1A40CC3F80CC09A602DAA93
S315020054F05A6045F24432C0F204221A6045F274320E
